{
  "contractName": "Coinflip",
  "abi": [
    {
      "anonymous": false,
      "inputs": [
        {
          "indexed": false,
          "internalType": "address",
          "name": "user",
          "type": "address"
        },
        {
          "indexed": false,
          "internalType": "uint256",
          "name": "bet",
          "type": "uint256"
        },
        {
          "indexed": false,
          "internalType": "bool",
          "name": "",
          "type": "bool"
        }
      ],
      "name": "bet",
      "type": "event"
    },
    {
      "anonymous": false,
      "inputs": [
        {
          "indexed": false,
          "internalType": "address",
          "name": "owner",
          "type": "address"
        },
        {
          "indexed": false,
          "internalType": "uint256",
          "name": "funding",
          "type": "uint256"
        }
      ],
      "name": "funded",
      "type": "event"
    },
    {
      "constant": true,
      "inputs": [],
      "name": "ContractBalance",
      "outputs": [
        {
          "internalType": "uint256",
          "name": "",
          "type": "uint256"
        }
      ],
      "payable": false,
      "stateMutability": "view",
      "type": "function"
    },
    {
      "constant": true,
      "inputs": [],
      "name": "owner",
      "outputs": [
        {
          "internalType": "address",
          "name": "",
          "type": "address"
        }
      ],
      "payable": false,
      "stateMutability": "view",
      "type": "function"
    },
    {
      "constant": false,
      "inputs": [],
      "name": "flip",
      "outputs": [
        {
          "internalType": "bool",
          "name": "",
          "type": "bool"
        }
      ],
      "payable": true,
      "stateMutability": "payable",
      "type": "function"
    },
    {
      "constant": false,
      "inputs": [],
      "name": "fundContract",
      "outputs": [
        {
          "internalType": "uint256",
          "name": "",
          "type": "uint256"
        }
      ],
      "payable": true,
      "stateMutability": "payable",
      "type": "function"
    }
  ],
  "bytecode": "0x6080604052336000806101000a81548173ffffffffffffffffffffffffffffffffffffffff021916908373ffffffffffffffffffffffffffffffffffffffff160217905550610476806100536000396000f3fe60806040526004361061003f5760003560e01c80633b668059146100445780638da5cb5b1461006f578063bd097e21146100c6578063cde4efa9146100e4575b600080fd5b34801561005057600080fd5b50610059610106565b6040518082815260200191505060405180910390f35b34801561007b57600080fd5b5061008461010c565b604051808273ffffffffffffffffffffffffffffffffffffffff1673ffffffffffffffffffffffffffffffffffffffff16815260200191505060405180910390f35b6100ce610131565b6040518082815260200191505060405180910390f35b6100ec61020b565b604051808215151515815260200191505060405180910390f35b60015481565b6000809054906101000a900473ffffffffffffffffffffffffffffffffffffffff1681565b60008060009054906101000a900473ffffffffffffffffffffffffffffffffffffffff1673ffffffffffffffffffffffffffffffffffffffff163373ffffffffffffffffffffffffffffffffffffffff161461018c57600080fd5b600034141561019a57600080fd5b7fed7d0ddcc17abdb3935a0a23cd93e91b449dfeac7fd0def9f481ed5b37e18c4d3334604051808373ffffffffffffffffffffffffffffffffffffffff1673ffffffffffffffffffffffffffffffffffffffff1681526020018281526020019250505060405180910390a134905090565b6000662386f26fc100008034101561028b576040517f08c379a000000000000000000000000000000000000000000000000000000000815260040180806020018281038252601d8152602001807f546865206d696e696d756d2062657420697320302e303120457468657200000081525060200191505060405180910390fd5b343073ffffffffffffffffffffffffffffffffffffffff163110156102fb576040517f08c379a000000000000000000000000000000000000000000000000000000000815260040180806020018281038252602781526020018061041b6027913960400191505060405180910390fd5b6000806002428161030857fe5b06141561032857346001600082825401925050819055506000905061039b565b60016002428161033457fe5b06141561039a57346001600082825403925050819055503373ffffffffffffffffffffffffffffffffffffffff166108fc600234029081150290604051600060405180830381858888f19350505050158015610394573d6000803e3d6000fd5b50600190505b5b7f20d932006281d267f137cd3921b707c2097e1f041b1291181cc3d0e86f449ebb333483604051808473ffffffffffffffffffffffffffffffffffffffff1673ffffffffffffffffffffffffffffffffffffffff16815260200183815260200182151515158152602001935050505060405180910390a180925050509056fe54686520636f6e747261637420646f6573206e6f74206861766520656e6f7567682066756e6473a265627a7a723158206cc3b4b1afc07a600d3fc822a6063e6fccce0e76921367ccd36a05db644b521f64736f6c634300050c0032",
  "source": "import \"./Ownable.sol\";\npragma solidity 0.5.12;\n\n\ncontract Coinflip is Ownable{\n\n  uint public ContractBalance;\n\n  event bet(address user, uint bet, bool);\n  event funded(address owner, uint funding);\n\n\n  modifier costs(uint cost){\n      require(msg.value >= cost, \"The minimum bet is 0.01 Ether\");\n      _;\n  }\n\nfunction flip() public payable costs(0.01 ether) returns(bool){\n  require(address(this).balance >= msg.value, \"The contract does not have enough funds\");\n  bool success;\n  if(now % 2 == 0){\n    ContractBalance += msg.value;\n    success = false;\n  }\n  else if(now % 2 == 1){\n    ContractBalance -= msg.value;\n    msg.sender.transfer(msg.value * 2);\n    success = true;\n  }\n  emit bet(msg.sender, msg.value, success);\n  return success;\n}\n\nfunction fundContract() public payable onlyOwner returns(uint){\n  require(msg.value != 0);\n  emit funded(msg.sender, msg.value);\n  return msg.value;\n}\n\n}\n",
  "sourcePath": "/Users/dustbuster/Projects/CoinFlip/contracts/Coinflip.sol",
  "compiler": {
    "name": "solc",
    "version": "0.5.12+commit.7709ece9.Emscripten.clang"
  },
  "schemaVersion": "3.0.16",
  "updatedAt": "2020-06-22T16:59:15.120Z",
  "devdoc": {
    "methods": {}
  },
  "userdoc": {
    "methods": {}
  }
}